:0A0000000C9481000C9400000C9495
:10000A0000000C9400000C9400000C94CE010C9497
:10001A00D9010C9400000C9400000C9400000C947C
:10002A0000000C9400000C9400000C9400000C9446
:10003A0000000C9400000C9400000C9400000C9436
:10004A0000000C9400000C9400000C9400000C9426
:10005A0000000C9400000C9400000C9400000C9416
:10006A0000000C9400000C9400000C9400000C9406
:10007A0000000C9400000C9400000C9400000C94F6
:10008A000000415344573F065B4F666D7D077F6F03
:10009A000000640001001E19140F0A0057656C6302
:1000AA006F6D6520746F2047616D650053746172CE
:1000BA0074205072657373204B45593100596F751E
:1000CA002057696E210047616D65204F7665722160
:1000DA00000001002D4E414E00494E46000001002D
:1000EA0002009A00040004009C0005000005A0001C
:1000FA0001000F05DC000000F894EE27ECBBF1E0EC
:10010A00F5BFE5BFE0936C008DE0A2E0BB27ED935D
:10011A008A95E9F780E090E1A0E0B1E0ED930197DC
:10012A00E9F7E8EEF0E085919591009761F0A591E5
:10013A00B59105901590BF01F00105900D920197B8
:10014A00E1F7FB01F0CF8BBFEFEFEDBFE0E1EEBFD0
:10015A00C0E0D5E00C94B100E0EFE7BBE1BBEFE013
:10016A00E0936400E0E3E9BFE8E0EABFE0E8EFBF5C
:10017A00CBD0A6EAB0E0DAD0A0EC42D1A7E6B0E054
:10018A001DD020FE19C0A3D021FE02C05F9901C074
:10019A0008C0219725D0E883A88157D0A8811AD012
:1001AA0021964A94442041F4E4E64E2EE0E0E51517
:1001BA0010F45A9401C077D0E4CFFFCF1A930A9370
:1001CA008D011093900009B9E8E1EAB9E6E0E093FD
:1001DA009500B9C01A931A2F5D9BFECF1CB9D3C0E4
:1001EA005F9BFECFECB108951A930A9300E010E0EA
:1001FA000530E0E01E0794F4F801EB5FFA4FFF9335
:10020A00EF93E2D0A3E0B0E0A9D1E457FF4FE49125
:10021A00AF91BF91EC930F5F1F4FEACF94C01A932F
:10022A000A93A1E093D0A0EC91D000E010E0053051
:10023A00E0E01E074CF4A5E0B5E0A00FB11FAC91B9
:10024A008CD00F5F1F4FF3CF7EC01A931A2FDCD0CA
:10025A001083DAD0A081E72DF0E0EB5FFA4FE0815E
:10026A00EA1731F47394E5E0E71509F403D001C005
:10027A001AD089C06394E5E0E61548F4A1E066D097
:10028A00A7ECB0E053D0E89420F821F80BC0E62D93
:10029A00F0E03197E050FB4F5080E4E64E2E772491
:1002AA00A3DFBDDF0895A1E051D0A0EDB0E03ED0BC
:1002BA00A0EDB7E06BD101D00895E1E06E2EA9D090
:1002CA007724E89421F820F8A1E09AD00895E8E08C
:1002DA00E0936500A3D0ABD0A1D0B2D0E4E0E09324
:1002EA006500B9D0A4D0B7D0ABD0E2E0E093650006
:1002FA00BBD09DD0B9D0A4D0E1E0E0936500BDD0D9
:10030A0096D0BBD09DD00895EFEFEABBE0E0EBBBFF
:10031A00A0E21CD0AFE0B0E039D1A8E217D0ACE03F
:10032A0015D0A1E013D0A6E011D008951A930A932C
:10033A008D01F801E491E03031F0F8010F5F1F4FB1
:10034A00A4910BD0F6CF0991199108951A931A2FF7
:10035A001CD0E0E09BD0E0E006C01A931A2F15D01B
:10036A00E1E094D0E1E0EBBBEBB3AE2FE12FE295F5
:10037A00E07FEA2BEBBB85E08A95F1F7DA9A85E014
:10038A008A95F1F7DA9819910895A2E0B0E0FED0C3
:10039A0008958CD021FC07C0689420F83AD024DF55
:1003AA003EDF689421F802C081D087DFE991EFBF70
:1003BA00F991E991B991A991999189917991699163
:1003CA00F990199009901895E0910F05F091100590
:1003DA006091110570911205ADE6BEE486EC91E4D8
:1003EA0077D0EE59F8486F4F7F4FE0930F05F0939F
:1003FA0010056093110570931205FB01FF770895AC
:10040A00A5DFA6EBB0E092CFE72DF0E0E65FFA4F6A
:10041A00089550900005E4E64E2E0895A42DBB27BA
:10042A00EAE0F0E08DD0E057FF4FE4910895EF70D5
:10043A00E295E07FAE2FE2B3EF70EA2BE2BB0895BC
:10044A00E077AE2FE8B3EF70EA2BE8BB80E197E2E2
:10045A000197F1F70895A42DB0E0EAE0F0E06BD03F
:10046A00E057FF4FE4910895A52DBB27EAE0F0E09D
:10047A0067D0E057FF4FE4910895A52DB0E0EAE078
:10048A00F0E059D0E057FF4FE4910895EBBBEBB38E
:10049A00AE2FE12FE07FEA2BEBBB85E08A95F1F7DF
:1004AA00DA9A85E08A95F1F7DA9808950A921A920B
:1004BA00FA926A937A938A939A93AA93BA93EA934B
:1004CA00FA93EFB7EA930895F195E195F04008950C
:1004DA007A9F702D6B9F700DF89F700DE99F700DBC
:1004EA006A9F602D710DFB9F600D711DE89F600D65
:1004FA00711D8827FA9FF02D610D781FEB9FF00D73
:10050A00611D781FEA9FE02DF10D681F781F08957D
:10051A000024112490E1AA0FBB1F001C111C0E1A03
:10052A001F0A18F40E0E1F1E01C0A1609A9599F7B2
:10053A00FD01D00108951CD0EBDF0EF4C5DF08954C
:10054A00E894B7FF04C0B195A195B0406894F7FD4F
:10055A00BBDFDEDFFD010EF4B7DF0895E894F7FF95
:10056A0002C0B2DF6894EA23FB230EF4ADDF0895DC
:10057A00E894F7FF02C0A8DF6894B7FF06C0B195F8
:10058A00A195B04000F8039400FA0895109639F046
:10059A00A89580EA9FE00197F1F71197C9F70895A6
:00000001FF
