:0E0000000C94AD000C9400000C9400000C94C5
:10000E0000000C9400000C9443020C945B020C94C0
:10001E0000000C9400000C9400000C9400000C9452
:10002E0000000C9400000C9400000C9400000C9442
:10003E0000000C9400000C9400000C9400000C9432
:10004E0000000C9400000C9400000C9400000C9422
:10005E0000000C9400000C9400000C9400000C9412
:10006E0000000C9400000C9400000C9400000C9402
:10007E0000000C9400000C9400000C9400005157EA
:10008E004552415344463F065B4F666D7D077F6F79
:10009E0000006400010000000F0A070503005479F8
:1000AE0070696E67205275736821005374617274A3
:1000BE00205072657373204B455931005B005D0013
:1000CE00202020202020486974212020202020205C
:1000DE000020202020204D69737321202020202015
:1000EE00003C003E00596F752057696E21003C524E
:1000FE004F554E44200033204869747320696E209A
:10010E0000730047616D65204F76657221003C5289
:10011E004F554E4420313E00332048697473206998
:10012E006E203135730001002D4E414E00494E4672
:10013E000000010002009E0006000400A000050061
:10014E000005A60001000F0534010000F894EE270B
:10015E00ECBBF1E0F5BFE5BFE0936C008DE0A2E0F3
:10016E00BB27ED938A95E9F780E090E1A0E0B1E03E
:10017E00ED930197E9F7E0E4F1E085919591009711
:10018E0061F0A591B59105901590BF01F001059014
:10019E000D920197E1F7FB01F0CF8BBFEFEFEDBFB3
:1001AE00E0E1EEBFC0E0D5E00C94DD00E0EFE7BB90
:1001BE00E1BBEFE0E0936400E0E3E9BFE8E0EABF13
:1001CE00E0E8EFBF14D1ACEAB0E023D19AD1A4EFAE
:1001DE00B1E074D2A7E6B0E01DD020FE19C0EAD07F
:1001EE0021FE02C05F9901C008C0219725D0E88387
:1001FE00A88158D0A8811AD021964A94442041F45F
:10020E00E4E64E2EE0E0E51510F45A9401C0C1D09C
:10021E00E4CFFFCF1A930A938D011093900009B982
:10022E00E8E1EAB9E6E0E093950000C11A931A2FCF
:10023E005D9BFECF1CB91AC15F9BFECFECB108953A
:10024E001A930A9300E010E00530E0E01E0794F4E4
:10025E00F801EB5FFA4FFF93EF9337D1A7E0B0E0D1
:10026E0015D2E457FF4FE491AF91BF91EC930F5F1E
:10027E001F4FEACFDBC01A930A93A1E0DAD000E059
:10028E0010E00530E0E01E0764F4AAECB0E0C1D047
:10029E00A5E0B5E03BD1ACECB0E0BBD00F5F1F4F9B
:1002AE00F0CFC4C01A931A2FE72DF0E0E65FFA4F95
:1002BE001083739421D0E72DF0E03197EB5FFA4F66
:1002CE00E081E11779F4E5E0E71559F49394E3E062
:1002DE00E91511F42AD005C0A0ECABD0AEECB0E01D
:1002EE0019D105C0A0ECA5D0AFEDB0E013D1BEC0C2
:1002FE007724A6DFC0DF08951A930A93A0EC99D055
:10030E0000E010E0E72DD801F0E0AE17BF0764F46F
:10031E00AFEEB0E07ED0AAE0B5E0F8D0A1EFB0E04D
:10032E0078D00F5F1F4FEECF81C06394E5E0E615E6
:10033E0048F4A1E07ED0A3EFB0E06BD0A0EC79D072
:10034E00EED026C0A1E075D0ACEFB0E062D0A62D05
:10035E00A05D76D0A1EFB0E05CD0A0EC6AD0A4E0B6
:10036E00B1E057D0E0D07FD1E05DAE2F69D0DBD0C9
:10037E007FD1E05DAE2F64D0AFE0B1E0DED0E62DF0
:10038E00F0E03197E050FB4F5080DBD059DF73DF48
:10039E000895A1E04ED0A1E1B1E03BD0C0D00895C8
:1003AE00E1E06E2E50900005CCD0E89421F820F8B4
:1003BE00A8D00895E8E0E0936500C8D0D0D0C6D0AC
:1003CE00D7D0E4E0E0936500DED0C9D0DCD0D0D049
:1003DE00E2E0E0936500E0D0C2D0DED0C9D0E1E02B
:1003EE00E0936500E2D0BBD0E0D0C2D00895EFEF2D
:1003FE00EABBE0E0EBBBA0E21CD0AFE0B0E05ED128
:10040E00A8E217D0ACE015D0A1E013D0A6E011D031
:10041E0008951A930A938D01F801E491E03031F0BA
:10042E00F8010F5F1F4FA4910BD0F6CF09911991D0
:10043E0008951A931A2F1CD0E0E0C0D0E0E006C059
:10044E001A931A2F15D0E1E0B9D0E1E0EBBBEBB374
:10045E00AE2FE12FE295E07FEA2BEBBB85E08A958C
:10046E00F1F7DA9A85E08A95F1F7DA9819910895FD
:10047E00A2E0B0E023D10895B1D021FC14C068945D
:10048E0020F850900005E4E64E2EA1E0D2DFACE15C
:10049E00B1E0BFDFA0ECCDDFA6E2B1E04ED0D0DE02
:1004AE00EADE689421F803C099D07ADF7FDEE99105
:1004BE00EFBFF991E991B991A991999189917991AA
:1004CE006991F990199009901895E0910F05F091A6
:1004DE0010056091110570911205ADE6BEE486EC33
:1004EE0091E48ED0EE59F8486F4F7F4FE0930F0591
:1004FE00F09310056093110570931205FB01FF77C1
:10050E000895A0EC96DFA9EBB0E083CFA00FB11F4A
:10051E00AC9196CF7EDFA4EFB1E0D0D0E9CEA0EDC6
:10052E00B7E0CCD03DCFE62DF0E03197E050FB4F59
:10053E00A081B0E0EAE0F0E008956BDFA8EEB3E052
:10054E00BDC0E4E64E2E772499240895A42DBB2732
:10055E00EAE0F0E08DD0EC56FF4FE4910895EF7095
:10056E00E295E07FAE2FE2B3EF70EA2BE2BB089587
:10057E00E077AE2FE8B3EF70EA2BE8BB80E197E2AD
:10058E000197F1F70895A42DB0E0EAE0F0E06BD00A
:10059E00EC56FF4FE4910895A52DBB27EAE0F0E05D
:1005AE0067D0EC56FF4FE4910895A52DB0E0EAE038
:1005BE00F0E059D0EC56FF4FE4910895EBBBEBB34E
:1005CE00AE2FE12FE07FEA2BEBBB85E08A95F1F7AA
:1005DE00DA9A85E08A95F1F7DA9808950A921A92D6
:1005EE00FA926A937A938A939A93AA93BA93EA9316
:1005FE00FA93EFB7EA930895F195E195F0400895D7
:10060E007A9F702D6B9F700DF89F700DE99F700D86
:10061E006A9F602D710DFB9F600D711DE89F600D2F
:10062E00711D8827FA9FF02D610D781FEB9FF00D3D
:10063E00611D781FEA9FE02DF10D681F781F089548
:10064E000024112490E1AA0FBB1F001C111C0E1ACE
:10065E001F0A18F40E0E1F1E01C0A1609A9599F77D
:10066E00FD01D00108951CD0EBDF0EF4C5DF089517
:10067E00E894B7FF04C0B195A195B0406894F7FD1A
:10068E00BBDFDEDFFD010EF4B7DF0895E894F7FF60
:10069E0002C0B2DF6894EA23FB230EF4ADDF0895A7
:1006AE00E894F7FF02C0A8DF6894B7FF06C0B195C3
:1006BE00A195B04000F8039400FA0895109639F011
:1006CE00A89580EA9FE00197F1F71197C9F7089571
:00000001FF
